:1000000095EF0DF00000000000EF00F00000000090
:0A0010000000000000000000F3D71C
:0E001C00010111B102D08B9801D08B88120027
:0E002A00010111B102D08B9601D08B8612001D
:0E003800010111B102D08D9601D08D8612000B
:0E004600010111B102D0899401D08984120009
:0E005400010111B102D08B9C01D08B8C1200E7
:0E006200010111B102D08B9401D08B841200E9
:0E007000010111B102D08B9A01D08B8A1200CF
:0E007E00010111B102D08B9E01D08B8E1200B9
:0E008C00010111B102D08A9201D08A821200C5
:0E009A00010111B102D08D9401D08D841200AD
:0E00A800010111B102D08F9201D08F8212009F
:0E00B600010111B102D08F9401D08F8412008D
:0E00C400010111B102D08B9801D08B8812007F
:0E00D200010111B102D08B9601D08B86120075
:0E00E000010111B102D08A9401D08A8412006D
:0E00EE00010111B102D08B9801D08B88120055
:0E00FC00010111B102D08B9601D08B8612004B
:0E010A00010111B102D08F9001D08F80120040
:0E011800010111B102D08B9A01D08B8A120026
:0E012600010111B102D08B9801D08B8812001C
:0E013400010111B102D08B9601D08B86120012
:0E014200010111B102D08B9201D08B8212000C
:0E015000010111B102D08B9A01D08B8A1200EE
:0E015E00010111B102D08D9001D08D801200F0
:10016C000F0121B302D00000FBD711C11CFF1200FC
:0E017C00ACB202D00000FCD711C1ADFF1200E2
:0E018A00010111B102D08B9001D08B801200C8
:0E019800010111B102D0899001D089801200BE
:0E01A600010111B102D08A9001D08A801200AE
:0E01B400010111B102D08D9201D08D82120096
:0E01C200010111B102D0899801D08988120084
:0E01D000010111B102D08B9801D08B88120072
:0E01DE00010111B102D08B9601D08B86120068
:0E01EC00010111B102D0899201D08982120066
:0E01FA00010111B102D08B9C01D08B8C120040
:0E020800010111B102D08B9E01D08B8E12002D
:0E021600010111B102D08B9801D08B8812002B
:0E022400010111B102D08B9601D08B86120021
:10023200C7B409D01F0EC514016E0150000A03E1B4
:0A024200010E006E01D0006A1200E8
:10024C00F250026EF29E0500FF6A0150FE6E0050E5
:08025C00FD6E02BEF28E1200DD
:1002640068B409D01F0E6614016E0150000A03E140
:0A027400010E006E01D0006A1200B6
:10027E001DCF01F00F0122A302D02299228901C0C5
:04028E0000F012006A
:0A029200000EACB2010E006E120067
:0A029C00000EA4BA010E006E12005D
:0A02A600000E82B0010E006E12007F
:0A02B000000E80B0010E006E120077
:0C02BA00000E0F0121B3010E006E1200B7
:1002C60035C00DF136C00EF137C00FF138C010F150
:1002D60001010B6B0C6B0C51120802E10B518E08DD
:1002E60008E3BDDF005201E004D001010B4B0C2BEB
:1002F600F2D70101120E0C5D02E18F0E0B5D03E3D6
:100306007B0E006E24D0668066A020D03550361055
:10031600371038101AE00D510E110F1110110EE1A1
:10032600A1C0E1FFA2C0E2FF050EE66E9FC000F08D
:10033600A0C001F088DF010E006E09D0010E010198
:100346000D5F000E0E5B0F5B105BDED7006A1200BE
:0A035600000E80B8010E006E1200C8
:0A036000000E82B8010E006E1200BC
:0A036A00000E9EBA010E006E120094
:10037400AECF01F0ABA202D0AB98AB8801C000F0C5
:02038400120065
:0A038600000E82BC010E006E120092
:0A039000000E82BE010E006E120086
:0A039A00000E82B6010E006E120084
:0A03A400000E80B2010E006E120080
:0A03AE00000E82B8010E006E12006E
:0A03B800000E81B0010E006E12006D
:0A03C200000E82B6010E006E12005C
:0A03CC00000E84B0010E006E120056
:0A03D600000E82B8010E006E120046
:0A03E000000E82B2010E006E120042
:0A03EA00000E82BA010E006E120030
:0A03F400000E84B2010E006E12002C
:0A03FE00000E82B8010E006E12001E
:1004080031C00DF132C00EF133C00FF134C010F11C
:100418009E96C5869EB61FD03150321033103410C8
:1004280019E001010D510E110F1110110CE1B5C0A9
:10043800E1FFB6C0E2FF030EE66EB3C000F0B4C041
:1004480001F000DF08D0010E01010D5F000E0E5B08
:100458000F5B105BDFD70101C9CF0CF10B51000A0C
:1004680002E1C58A01D0C59A9E96C58831C00DF1B2
:1004780032C00EF133C00FF134C010F19EB61FD058
:10048800315032103310341019E001010D510E11A2
:100498000F1110110CE1B5C0E1FFB6C0E2FF030E69
:1004A800E66EB3C000F0B4C001F0CCDE08D0010E97
:1004B80001010D5F000E0E5B0F5B105BDFD70CC1F7
:0404C80000F012002E
:1004CC009E960BC1C9FF31C00CF132C00DF133C087
:1004DC000EF134C00FF1C7A421D0315032103310BB
:1004EC0034101BE001010C510D110E110F110EE116
:1004FC00B5C0E1FFB6C0E2FF040EE66EB3C000F07B
:10050C00B4C001F09DDE010E006E3AD0010E010167
:10051C000C5F000E0D5B0E5B0F5BDDD731C00CF179
:10052C0032C00DF133C00EF134C00FF19EB621D0A4
:10053C0031503210331034101BE001010C510D11ED
:10054C000E110F110EE1B5C0E1FFB6C0E2FF040EB3
:10055C00E66EB3C000F0B4C001F072DE010E006EA6
:10056C000FD0010E01010C5F000E0D5B0E5B0F5BDB
:10057C00DDD7C5BC02D0006A03D0C584020E006E64
:02058C0012005B
:0A058E00000E86B4010E006E12008C
:0A059800000E82BA010E006E120080
:0A05A200000E82B6010E006E12007A
:0A05AC00000E81B4010E006E120073
:1005B60035C00BF136C00CF137C00DF138C00EF165
:1005C600668266A21FD0355036103710381019E0F3
:1005D60001010B510C110D110E110CE1A1C0E1FF2F
:1005E600A2C0E2FF060EE66E9FC000F0A0C001F0BA
:1005F6002ADE08D0010E01010B5F000E0C5B0D5BBD
:060606000E5BDFD71200BD
:04060C0066841200EE
:1006100031C00DF132C00EF133C00FF134C010F112
:1006200001010B6B0C6B0C51120802E10B518E088F
:1006300008E3FFDD005201E004D001010B4B0C2B5D
:10064000F2D70101120E0C5D02E18F0E0B5D03E388
:100650007B0E006E24D0C580C5A020D03150321052
:10066000331034101AE00D510E110F1110110EE15C
:10067000B5C0E1FFB6C0E2FF050EE66EB3C000F004
:10068000B4C001F0E3DD010E006E09D0010E0101DE
:100690000D5F000E0E5B0F5B105BDED7006A120071
:1006A000A19A0BC16AFF35C00CF136C00DF137C0FD
:1006B0000EF138C00FF168A421D035503610371034
:1006C00038101BE001010C510D110E110F110EE13C
:1006D000A1C0E1FFA2C0E2FF040EE66E9FC000F0E1
:1006E000A0C001F0B3DD010E006E3AD0010E010191
:1006F0000C5F000E0D5B0E5B0F5BDDD735C00CF1A0
:1007000036C00DF137C00EF138C00FF1A1BA21D0BB
:1007100035503610371038101BE001010C510D1107
:100720000E110F110EE1A1C0E1FFA2C0E2FF040E05
:10073000E66E9FC000F0A0C001F088DD010E006EE3
:100740000FD0010E01010C5F000E0D5B0E5B0F5B05
:10075000DDD766BC02D0006A03D06684020E006E4C
:02076000120085
:0A076200000E86B2010E006E1200B8
:04076C00C58412002E
:1007700035C00DF136C00EF137C00FF138C010F1A1
:10078000A19A6686A1BA1FD035503610371038109E
:1007900019E001010D510E110F1110110CE1A1C052
:1007A000E1FFA2C0E2FF030EE66E9FC000F0A0C012
:1007B00001F04CDD08D0010E01010D5F000E0E5B53
:1007C0000F5B105BDFD701016ACF0CF10B51000A00
:1007D00002E1668A01D0669AA19A668835C00DF159
:1007E00036C00EF137C00FF138C010F1A1BA1FD0DA
:1007F000355036103710381019E001010D510E1127
:100800000F1110110CE1A1C0E1FFA2C0E2FF030E25
:10081000E66E9FC000F0A0C001F018DD08D0010E08
:1008200001010D5F000E0E5B0F5B105BDFD70CC18B
:0408300000F01200C2
:0A083400000E82B8010E006E1200E3
:0A083E00000E80B4010E006E1200DF
:0A084800000E82B6010E006E1200D1
:1008520031C00BF132C00CF133C00DF134C00EF1D6
:10086200C582C5A21FD0315032103310341019E0A6
:1008720001010B510C110D110E110CE1B5C0E1FF7C
:10088200B6C0E2FF060EE66EB3C000F0B4C001F0DF
:10089200DCDC08D0010E01010B5F000E0C5B0D5B6E
:0608A2000E5BDFD712001F
:0A08A800000E82BE010E006E120069
:0A08B200000E82BA010E006E120063
:0A08BC00000E82B4010E006E12005F
:0A08C600000E82B6010E006E120053
:0A08D000000E81B2010E006E12004E
:0A08DA00000E84B4010E006E12003F
:0A08E400000E84B6010E006E120033
:0A08EE00000E82B6010E006E12002B
:0A08F800000E86B0010E006E120023
:0A090200000E82BC010E006E120010
:0A090C00000E82B8010E006E12000A
:10091600320E0001BF6F020EC06F000EC16F000ED7
:10092600C26F100EBB6F060EBC6F000EBD6F000EC1
:10093600BE6F520EC36F080EC46F000EC56F000E59
:10094600C66F080EAF6F040EB06F0B0EB16F010EBF
:10095600B26FCC0EAB6F040EAC6F0B0EAD6F010E0B
:10096600AE6F6C0EA36F070EA46F000EA56F000E80
:10097600A66F949894968B988B9694889486C79E27
:08098600C79C380EC66E12007A
:10098E007C0E0001A76F010EA86F110EA96F010E4C
:10099E00AA6F740EE76F030EE86F000EE96F000E7C
:1009AE00EA6F6A0EEB6F030EEC6F000EED6F000E2A
:1009BE00EE6F920ECF6F020ED06F000ED16F000E43
:1009CE00D26FAC8A900EAB6E948E949C9EAA03D07E
:0809DE00AECF00F0FBD71200C0
:1009E6006C0E0001A76F010EA86F110EA96F010E04
:1009F600AA6F7E0EE76F020EE86F000EE96F000E1B
:100A0600EA6F9C0EEB6F020EEC6F000EED6F000EA0
:100A1600EE6FBA0ECF6F020ED06F000ED16F000EC2
:100A2600D26F0F01218B900E226F98849892A4AA00
:0A0A360003D01DCF00F0FBD7120023
:100A400021D0CF0EAF6EAC94A2DF6BD0670EAF6E2D
:100A5000AC949DDF66D0CF0EAF6EAC8498DF61D0D2
:100A6000670EAF6EAC8493DF5CD0440EAF6EAC8487
:100A70008EDF57D0220EAF6EAC8489DF52D0060EC7
:100A8000006E58D00001000E006EFE1908E1005003
:100A9000FD1905E1120EFC1902E1FB51C00AD1E07B
:100AA000000E006EFE1908E10050FD1905E1250E4B
:100AB000FC1902E1FB51800AC9E0000E006EFE192C
:100AC00008E10050FD1905E14B0EFC1902E1FB5154
:100AD000000AC1E0000E006EFE1908E10050FD1989
:100AE00005E1960EFC1902E1FB51000AB9E0000E87
:100AF000006EFE1908E10050FD1905E1E10EFC1938
:100B000002E1FB51000AB1E0FE51000A08E1FD518B
:100B1000010A05E1FC51C20A02E1FB51000AAAE008
:100B2000AED77C0EB76F010EB86F110EB96F010E04
:060B3000BA6F006A12001A
:100B360021D0CF0EAF6EAC9427DF6BD0670EAF6EB1
:100B4600AC9422DF66D0CF0EAF6EAC841DDF61D0D1
:100B5600670EAF6EAC8418DF5CD0440EAF6EAC840B
:100B660013DF57D0220EAF6EAC840EDF52D0060EC6
:100B7600006E58D00001000E006EFE1908E100500C
:100B8600FD1905E1120EFC1902E1FB51C00AD1E084
:100B9600000E006EFE1908E10050FD1905E1250E54
:100BA600FC1902E1FB51800AC9E0000E006EFE1935
:100BB60008E10050FD1905E14B0EFC1902E1FB515D
:100BC600000AC1E0000E006EFE1908E10050FD1992
:100BD60005E1960EFC1902E1FB51000AB9E0000E90
:100BE600006EFE1908E10050FD1905E1E10EFC1941
:100BF60002E1FB51000AB1E0FE51000A08E1FD5195
:100C0600010A05E1FC51C20A02E1FB51000AAAE011
:100C1600AED77C0EB76F010EB86F110EB96F010E0D
:060C2600BA6F006A120023
:100C2C0038D00F0120870D0E1F6F040E1E6F21850B
:100C3C00D4DE7ED00F012087060E1F6F820E1E6F32
:100C4C002185CBDE75D00F012087030E1F6F400E60
:100C5C001E6F2185C2DE6CD00F012087010E1F6F25
:100C6C00A00E1E6F2185B9DE63D00F012087010E07
:100C7C001F6F150E1E6F2185B0DE5AD00F01208715
:100C8C001F6B8A0E1E6F2185A8DE52D0060E006ED9
:100C9C0059D0000E006E0001FE1908E10050FD193C
:100CAC0005E1120EFC1902E1FB51C00ABAE0000E7C
:100CBC00006EFE1908E10050FD1905E1250EFC1926
:100CCC0002E1FB51800AB6E0000E006EFE1908E14D
:100CDC000050FD1905E14B0EFC1902E1FB51000A15
:100CEC00B2E0000E006EFE1908E10050FD1905E19E
:100CFC00960EFC1902E1FB51000AAEE0000E006EEC
:100D0C00FE1908E10050FD1905E1E10EFC1902E1A4
:100D1C00FB51000AAAE0FE51000A08E1FD51010A4C
:100D2C0005E1FC51C20A02E1FB51000AA7E0AED773
:100D3C0000016C0EB76F010EB86F110EB96F010E7A
:060D4C00BA6F006A1200FC
:100D520021D0CF0EAF6EAC9419DE6BD0670EAF6EA2
:100D6200AC9414DE66D0CF0EAF6EAC840FDE61D0D1
:100D7200670EAF6EAC840ADE5CD0440EAF6EAC84FC
:100D820005DE57D0220EAF6EAC8400DE52D0060EC6
:100D9200006E58D00001000E006EFE1908E10050EE
:100DA200FD1905E1120EFC1902E1FB51C00AD1E066
:100DB200000E006EFE1908E10050FD1905E1250E36
:100DC200FC1902E1FB51800AC9E0000E006EFE1917
:100DD20008E10050FD1905E14B0EFC1902E1FB513F
:100DE200000AC1E0000E006EFE1908E10050FD1974
:100DF20005E1960EFC1902E1FB51000AB9E0000E72
:100E0200006EFE1908E10050FD1905E1E10EFC1922
:100E120002E1FB51000AB1E0FE51000A08E1FD5176
:100E2200010A05E1FC51C20A02E1FB51000AAAE0F3
:100E3200AED77C0EB76F010EB86F110EB96F010EEF
:060E4200BA6F006A120005
:100E480057D00001FCB102D0929401D0928476D0A0
:100E58000001FCB102D0969601D096866FD00001B1
:100E6800FCB102D0969401D0968468D00001FCB100
:100E780002D0949601D0948661D00001FCB102D0D2
:100E8800949801D094885AD00001FCB102D0949A69
:100E980001D0948A53D00001FCB102D0989001D0BF
:100EA80098804CD00001FCB102D0939401D0938477
:100EB80045D00001FCB102D0989401D098843ED06E
:100EC8000001FCB102D0989201D0988237D000017D
:100ED800FCB102D0949601D0948630D00001FCB1C8
:100EE80002D0949801D0948829D0010E006E28D0A1
:100EF8000001FB51000AA5E0FB51010AA9E0FB51E2
:100F0800020AADE0FB51030AB1E0FB51040AB5E067
:100F1800FB51050AB9E0FB51060ABDE0FB51070A7F
:100F2800C1E0FB51080AC5E0FB51090AC9E0FB51C1
:100F38000A0ACDE0FB510B0AD1E0D7D7000E006EAC
:020F4800120095
:100F4A0057D00001FCB102D0929201D0928276D0A1
:100F5A000001FCB102D0929801D092886FD00001B2
:100F6A00FCB102D0969201D0968268D00001FCB101
:100F7A0002D0949601D0948661D00001FCB102D0CF
:100F8A00949801D094885AD00001FCB102D0949A66
:100F9A0001D0948A53D00001FCB102D0949401D0BC
:100FAA0094844CD00001FCB102D0939201D0938278
:100FBA0045D00001FCB102D0949E01D0948E3ED05F
:100FCA000001FCB102D0949C01D0948C37D000016E
:100FDA00FCB102D0949601D0948630D00001FCB1C5
:100FEA0002D0949801D0948829D0010E006E28D09E
:100FFA000001FB51000AA5E0FB51010AA9E0FB51DF
:10100A00020AADE0FB51030AB1E0FB51040AB5E064
:10101A00FB51050AB9E0FB51060ABDE0FB51070A7C
:10102A00C1E0FB51080AC5E0FB51090AC9E0FB51BE
:10103A000A0ACDE0FB510B0AD1E0D7D7000E006EA9
:02104A00120092
:10104C0057D00001FCB102D0929001D0928076D0A2
:10105C000001FCB102D0949001D094806FD00001BB
:10106C00FCB102D0969001D0968068D00001FCB102
:10107C0002D0949601D0948661D00001FCB102D0CC
:10108C00949801D094885AD00001FCB102D0949A63
:10109C0001D0948A53D00001FCB102D0949201D0BB
:1010AC0094824CD00001FCB102D0939001D093807B
:1010BC0045D00001FCB102D0949E01D0948E3ED05C
:1010CC000001FCB102D0949C01D0948C37D000016B
:1010DC00FCB102D0949601D0948630D00001FCB1C2
:1010EC0002D0949801D0948829D0010E006E28D09B
:1010FC000001FB51000AA5E0FB51010AA9E0FB51DC
:10110C00020AADE0FB51030AB1E0FB51040AB5E061
:10111C00FB51050AB9E0FB51060ABDE0FB51070A79
:10112C00C1E0FB51080AC5E0FB51090AC9E0FB51BB
:10113C000A0ACDE0FB510B0AD1E0D7D7000E006EA6
:02114C0012008F
:10114E00FBC0FEF0FCC0FFF0FDC000F10DD0A00E04
:10115E00C86E8BEC04F045D0280EC86E8BEC04F0F4
:10116E0040D0040E006E3FD0FEC0F6FFFFC0F7FF6A
:10117E0000C1F8FF0900F5CF01F00900F5CF02F02C
:10118E000900F5CF03F00900F5CF04F00450000A72
:10119E0008E10350010A05E10250860A02E10150FE
:1011AE00A00AD5E0FEC0F6FFFFC0F7FF00C1F8FFB2
:1011BE000900F5CF01F00900F5CF02F00900F5CFD7
:1011CE0003F00900F5CF04F00450000A08E10350C3
:1011DE00060A05E102501A0A02E10150800ABCE03B
:0811EE00C0D7000E006E1200D4
:1011F600FBC0FEF0FCC0FFF0FDC000F10DD0A00E5C
:10120600C86E8BEC04F045D0280EC86E8BEC04F04B
:1012160040D0040E006E3FD0FEC0F6FFFFC0F7FFC1
:1012260000C1F8FF0900F5CF01F00900F5CF02F083
:101236000900F5CF03F00900F5CF04F00450000AC9
:1012460008E10350010A05E10250860A02E1015055
:10125600A00AD5E0FEC0F6FFFFC0F7FF00C1F8FF09
:101266000900F5CF01F00900F5CF02F00900F5CF2E
:1012760003F00900F5CF04F00450000A08E103501A
:10128600060A05E102501A0A02E10150800ABCE092
:08129600C0D7000E006E12002B
:10129E00FBC0FEF0FCC0FFF0FDC000F10DD0A00EB3
:1012AE00C86E8BEC04F045D0280EC86E8BEC04F0A3
:1012BE0040D0040E006E3FD0FEC0F6FFFFC0F7FF19
:1012CE0000C1F8FF0900F5CF01F00900F5CF02F0DB
:1012DE000900F5CF03F00900F5CF04F00450000A21
:1012EE0008E10350010A05E10250860A02E10150AD
:1012FE00A00AD5E0FEC0F6FFFFC0F7FF00C1F8FF61
:10130E000900F5CF01F00900F5CF02F00900F5CF85
:10131E0003F00900F5CF04F00450000A08E1035071
:10132E00060A05E102501A0A02E10150800ABCE0E9
:08133E00C0D7000E006E120082
:10134600B9C0E1FFBAC0E2FFFBC0E9FFFCC0EAFF9B
:10135600EECFE6FFB7C000F0B8C001F026EC01F012
:04136600006A120007
:10136A00FBC0F6FFFCC0F7FFFDC0F8FF0900F5CF90
:10137A00C7F00900F5CFC8F00900F5CFC9F0090098
:10138A00F5CFCAF0040E0001FB25F66E000EFC2113
:10139A00F76E000EFD21F86E0900F5CFDBF00900AB
:1013AA00F5CFDCF00900F5CFDDF00900F5CFDEF06E
:1013BA00080EFB25F66E000EFC21F76E000EFD21CD
:1013CA00F86E0900F5CFCBF00900F5CFCCF0090093
:1013DA00F5CFCDF00900F5CFCEF00C0EFB25F66E59
:1013EA00000EFC21F76E000EFD21F86E0900F5CF04
:1013FA00D3F00900F5CFD4F00900F5CFD5F00900F4
:10140A00F5CFD6F0100EFB25F66E000EFC21F76E16
:10141A00000EFD21F86E0900F5CFD7F00900F5CFCF
:10142A00D8F00900F5CFD9F00900F5CFDAF01200AB
:10143A00300E0001FB25006E000EFC21016E000E2D
:10144A00FD21026E1C0E0024F66E000E0120F76EBE
:10145A00000E0220F86E0900F5CFF0F00900F5CF72
:10146A00F1F00900F5CFF2F00900F5CFF3F0080E1C
:10147A00FB25F66E000EFC21F76E000EFD21F86EBC
:10148A000900F5CFDFF00900F5CFE0F00900F5CF4C
:10149A00E1F00900F5CFE2F0040EFB25F66E000E2E
:1014AA00FC21F76E000EFD21F86E0900F5CFE3F07E
:1014BA000900F5CFE4F00900F5CFE5F00900F5CF12
:0414CA00E6F0120036
:1014CE000001FB6BFC6BC7C000F0C8C001F026EC3E
:1014DE0001F000C0FBF0000E0001FC6FFBC000F03D
:0614EE00FCC001F0120039
:1014F4000001FD6BFE6B02C1FBF003C1FCF001C1F6
:1015040000F0003600900080D5C0E1FFD6C0E2FFB5
:1015140000C0E6FFD3C000F0D4C001F026EC01F017
:1015240000500001FD13000EFE13010E0101045FC3
:10153400000E055B0451051116E0D9C0E1FFDAC0C5
:10154400E2FF010EE66ED7C000F0D8C001F026EC31
:1015540001F0FBC0E1FFFCC0E2FF00C0E6FF0001B8
:10156400FB4BFC2BE2D7D9C0E1FFDAC0E2FFE66A0D
:10157400D7C000F0D8C001F026EC01F0FBC0E1FFB9
:10158400FCC0E2FF00C0E6FF01010651000A06E1CB
:10159400DBC000F0DCC001F026EC01F001010651D3
:1015A400010A06E1CBC000F0CCC001F026EC01F04A
:0A15B400FDC000F0FEC001F01200BF
:1015BE000001FD6BFE6B02C1FBF003C1FCF001C12B
:1015CE0000F000360090D5C0E1FFD6C0E2FF00C0AB
:1015DE00E6FFD3C000F0D4C001F026EC01F00050BD
:1015EE000001FD13000EFE1304C100F005C101F051
:1015FE00010E0101045F000E055B0050011018E0A2
:10160E00D5C0E1FFD6C0E2FFFBC0E9FFFCC0EAFF98
:10161E00EECFE6FFD3C000F0D4C001F026EC01F00F
:10162E0000500001FD13000EFE13FB4BFC2BDCD70C
:10163E0001010651000A06E1DBC000F0DCC001F03A
:10164E0026EC01F001010651010A06E1C7C000F0C7
:10165E00C8C001F026EC01F0FDC000F0FEC001F0A4
:02166E00120068
:10167000090E0B6E1E0E0C6EE40E0D6E0D2EFED7B7
:0C1680000C2EFCD70B2EFAD70000120035
:10168C000001F76BF86BFE0EF46F1BDFEFC001F17E
:10169C00F40E0101026F000E036F010E046F000EB9
:1016AC00056F066B86DF0DDFEFC001F1F70E010150
:1016BC00026F000E036F020E046F000E056F066BB7
:1016CC0013DFD0DFF7C0F5F0000E0001F66FF5C0A8
:1016DC00F6F0F56BF851F513000EF613C3DFF5C0F9
:0816EC0000F0F6C001F012004D
:1016F4001BD0F5C0FBF0F6C0FCF0F7C0FDF0CDDD6B
:101704001ED0F5C0FBF0F6C0FCF0F7C0FDF071DDB3
:1017140016D0F5C0FBF0F6C0FCF0F7C0FDF015DD07
:101724000ED0010E006E0BD00001F451000AE1E06E
:10173400F451010AE6E0F451020AEBE0F2D7120098
:1017440017D0F5C0FBF0F6C0FCF07EDC1CD0F5C071
:10175400FBF0F6C0FCF0A5EC07F015D0F5C0FBF0EB
:10176400F6C0FCF024EC07F00ED0010E006E0BD096
:101774000001F451000AE5E0F451010AE8E0F451F3
:08178400020AECE0F2D71200AA
:10178C00520E0B6E2B0E0C6E000E0D6E0D2EFED728
:0C179C000C2EFCD70B2EFAD70000120018
:1017A800020E0001F66FF5C000F0016A00C0F7F004
:1017B800F4C0F8F088DEEFC001F1F60E0101026F07
:1017C800000E036F030E046F000E056F066BF3DE49
:0417D8004BDF1200D1
:1017DC00FAC0EFF0F7C0FBF0F8C0FCF0F9C0FDF078
:1017EC00BEDDF4C0FBF0F5C0FCF0F6C0FDF01FDE72
:1017FC00E1C0E1FFE2C0E2FFE66ADFC000F0E0C05A
:10180C0001F026EC01F0E5C0E1FFE6C0E2FFE66A7C
:0E181C00E3C000F0E4C001F026EC01F0120081
:10182A00F4C0F7F0F5C0F8F00D0E0001F96F0A0EDA
:10183A00FA6F35D0F7C0FBF0F8C0FCF07FDD3AD084
:10184A00F7C0E9FFF8C0EAFFEE5209E0F7C0FBF083
:10185A00F8C0FCF073DD0001F74BF82BF1D72AD062
:10186A00F7C0E9FFF8C0EAFFEE5209E0F7C0FBF063
:10187A00F8C0FCF063DD0001F74BF82BF1D700014B
:10188A00F90EFB6F000EFC6F59DDFA0E0001FB6FBB
:10189A00000EFC6F53DD0ED0060E006E0CD0000158
:1018AA00F651000AC7E0F651010ACAE0F651020AE7
:0818BA00D7E0F2D7006A12002A
:1018C200F5C000F00032009E0032009E0032009E01
:1018D2000032009ED00E0024F66E1B0EF76E000E34
:1018E200F722000EF86E000EF8220900F5CF00F084
:1018F200F6C0E1FFF7C0E2FF00C0E6FF010E000103
:10190200F625E16E000EF721E26E0F0EF515006E60
:10191200D00E0024F66E1B0EF76E000EF722000E9C
:10192200F86E000EF8220900F5CF00F000C0E6FFC5
:10193200020EF625E16E000EF721E26EF4C000F011
:101942000032009E0032009E0032009E0032009E55
:10195200D00E0024F66E1B0EF76E000EF722000E5C
:10196200F86E000EF8220900F5CF00F000C0E6FF85
:10197200030EF625E16E000EF721E26E0F0EF4154E
:10198200006ED00E0024F66E1B0EF76E000EF722CC
:10199200000EF86E000EF8220900F5CF00F000C02C
:1019A200E6FF040EF625E16E000EF721E26EE66A0E
:0219B200120021
:1019B4002FD0F5C0FBF0F6C0FCF0F7C0FDF0F8C086
:1019C400FEF020EC05F032D0F5C0FBF0F6C0FCF0E0
:1019D400F7C0FDF0F8C0FEF0A9EC06F027D0F5C082
:1019E400FBF0F6C0FCF0F7C0FDF0F8C0FEF016EC1A
:1019F40006F01CD0F5C0FBF0F6C0FCF0F7C0FDF01B
:101A0400F8C0FEF09BEC05F011D0010E006E0ED074
:101A14000001F451000ACDE0F451010AD5E0F4517B
:0E1A2400020ADDE0F451100AE5E0EFD71200EF
:101A32000001F46B020EF56FF66B83DE0001F46BAE
:101A4200070EF56F010EF66F7CDE0001F46B010EDE
:101A5200F56FF66B76DE0001F46BE00EF56F1B0E90
:101A6200F66F000EF76F45DE100E0001F46F800E68
:101A7200F56F250EF66F000EF76FF86F9ADF090EFD
:101A82000B6E1E0E0C6EE40E0D6E0D2EFED70C2E7E
:101A9200FCD70B2EFAD70000230E0001F46F000EC4
:0A1AA200F56F010EF66FC0DE1200B2
:101AAC000900F5CFE6FF0006FBE10106F9E11200A3
:101ABC00E7DD00C09DF001C09EF000C0F4F001C055
:101ACC00F5F0390EF66F000EF76FF5DE150EF46FAC
:101ADC00000EF56F010EF66FA2DE390E0001F46FE9
:0E1AEC00000EF56F020EF66F9ADE4ADE120053
:101AFA00380E0001F46F1B0EF56F000EF66FBC0E68
:101B0A00F76F1B0EF86F000EF96F400EFA6F61DE69
:101B1A00000E0001F46F100EF56F41DE32DE120086
:0E1B2A00F2EC0DF081DFE4DFC4DFFED7FFD761
:101BE40010EE15F0240E006E010E016E980EF66EC6
:0E1BF4001B0EF76E000EF86E56EC0DF0120090
:101B3800980111018A0111015E011101340111019D
:101B4800260111015001110142011101A6011101E3
:101B580008021101FA0111012402110116021101F2
:101B6800B0020000A6020000CC030000C20300007F
:101B7800D6030000EA030000E0030000B8030000F9
:101B880090030000860300009A030000AE030000E3
:0E1B98002D2D2D204D61696E4944203A20000C
:0E1BA6002D2D2D20496E6974202D2D2D20002F
:041BB400000000002D
:041BB8000000000029
:101BBC00100600006C07000052080000CC040B015A
:041BCC0008040B01FD
:101BD0003031323334353637383941424344454663
:041BE000A0860100DA
:020000040030CA
:0E00000015137F7CF98B11FFFFC0FFE0FF405E
:00000001FF
